:020000040800F2
:1000000028080020FD010008292000082120000800
:1000100025200008B31D0008072800080000000084
:10002000000000000000000000000000C9210008DE
:10003000B71D000800000000B12000081D230008C3
:10004000170200081702000817020008170200082C
:10005000170200081702000817020008170200081C
:10006000170200081702000817020008170200080C
:1000700017020008170200081702000817020008FC
:1000800017020008170200081702000817020008EC
:1000900017020008170200081702000817020008DC
:1000A00017020008170200081702000817020008CC
:1000B00017020008170200081702000817020008BC
:1000C00017020008170200081702000817020008AC
:1000D00017020008812300081702000809240008FD
:1000E000170200081702000817020008170200088C
:1000F000170200081702000817020008170200087C
:10010000170200081702000817020008170200086B
:10011000170200081702000817020008170200085B
:10012000170200081702000817020008170200084B
:1001300000F002F800F053F80AA090E8000C8244A6
:100140008344AAF10107DA4501D100F048F8AFF283
:10015000090EBAE80F0013F0010F18BFFB1A43F0A5
:1001600001031847F02F000010300000103A24BFA0
:1001700078C878C1FAD8520724BF30C830C144BF0C
:1001800004680C607047000000230024002500264E
:10019000103A28BF78C1FBD8520728BF30C148BFEA
:1001A0000B607047662902F00B87632900F02A83F1
:1001B000732900F02F83002070471FB500F092FBD9
:1001C00004000020002102F027FD401C6060002098
:1001D000002102F00BFDE0601FBD10B510BD00F066
:1001E000C5FC1146FFF7E9FF02F042FC00F03EFFBC
:1001F00003B4FFF7F2FF03BC02F088FB0948804715
:1002000009480047FEE7FEE7FEE7FEE7FEE7FEE7F8
:10021000FEE7FEE7FEE7FEE704480549054A064B10
:100220007047000021230008310100082802002047
:10023000280800202804002028040020704700001F
:100240000FB4044910B503AA029800F0E7FA10BCF5
:100250005DF814FBEC00002070B50C460546012A41
:1002600005D02878800600D5EA69002302E0012342
:1002700005E05B1C934202D2E05C0028F9D1A8693A
:10028000E618C01AA861286A184428622846AFF305
:10029000008004E0D5E9012114F8010B9047B44235
:1002A000F8D32846AFF3008070BD2DE9F0474FF03A
:1002B000000A89460446C0F820A02046E168884725
:1002C000002876D0252806D0D4E901219047206A5D
:1002D000401C2062F1E7E168204600258847C4F809
:1002E0001CA006460027C4F818A02A2E09D03046C4
:1002F00002F005FB38B304EB8708303EC8F81860FD
:1003000019E059F8041B204604EB87029161E1686B
:100310008847012F064618D1E069002820DA25F029
:1003200020051DE0D8F8180000EB800006EB400027
:100330003038C8F818002046E1688847064602F0C1
:10034000DEFA0028EED1012F0AD02E2E08D1204649
:10035000E16888477F1C0646022F45F02005C4DB74
:10036000A069002803DA404245F00105A061E807D2
:1003700001D025F01005B6B1A6F14100192802D828
:10038000203645F400654A463146204625604D46F4
:10039000FFF708FF58B1012806D0ED1D25F0070032
:1003A00000F1080989E704E005F1040985E7304612
:1003B0008AE7206ABDE8F08770477047704770474A
:1003C00010B500F093FA006810BD10B5044600F0B7
:1003D0008DFA046010BD70472DE9FF4F0C461E4694
:1003E0004FF0FF378BB0D2E90001DDF860800A9052
:1003F0008A46C1F30A5505B93D46002108464FF02B
:100400000000BAF1000F00F4400005DA00EB8000B4
:100410004FF4400101EA50004FEA9059B9F1010F41
:1004200000DDB9460A9850EA4A000ED044F6105052
:10043000A5F2FF3545432F14B8F1000F1ED07542C9
:10044000291E1EDDC9F100021CE0B8F1010F4FF0BA
:10045000000001D0302103E0F24305E02154401CAC
:10046000B042FBDB30460022002121540B99C1F839
:100470000880C1E900200FB0BDE8F08FBD1B6D1CE6
:10048000DEE74A4600DA694206A800F0F9FA06AB50
:1004900093E8070003AB83E8070050460A9901F090
:1004A0007AF88DE80700A0F500501F3800900398F7
:1004B000002D09DD42F21F014A46084403A90390BA
:1004C000684601F004FB08E0A0F500504A461F38DA
:1004D00003A90390684601F022FB8DE807000004A1
:1004E000000C03D04FF0FF30410800E01046B8F197
:1004F000000F03D00022009215461EE0751E05D4A1
:1005000000F0F8F9303262556D1EF9D5B34601227C
:10051000084302D000227F1C04E02078302801D15B
:1005200000227F1E002A099786D01DE0112D07DAD0
:1005300000F0E0F9303262556D1C50EA0102F5D14D
:10054000084302D00098C8B10EE00021681E05E003
:10055000235C625C63542254401E491C8142F7DBD9
:10056000AB46A81B401E0990002004F80B000B9816
:10057000099AC0F80880C0E9002B7CE711264FF0EB
:10058000000859E72DE9F04F88460446D21D22F0B5
:10059000070191B0D1E90001CDE90A0102F035F976
:1005A00002460B98C00F01D02D2007E0206881077C
:1005B00001D52B2002E0202101EAC000032A099086
:1005C00001D0072A05DB03464146204600F0F8F932
:1005D0000BE12078800601D5E06900E00620B8F143
:1005E000650F814606D0B8F1660F18D0B8F1670FD5
:1005F00070D131E00020B9F1110F009001DB11231F
:1006000001E009F101030AAA01A90CA8FFF7E4FE21
:10061000DDE90C70002609F10105834647E0012061
:100620004B4600904FF000470AAA01A90CA8FFF71B
:10063000D3FEDDE90DB00C995D46002610B909F135
:1006400001000D18B9EB050003D4C0F1FF3609F124
:100650000105A5EB09002BE0B9F1010F01DA4FF01C
:1006600001090020B9F1110F0090484601DD112366
:1006700000E003460AAA01A90CA8FFF7ADFEDDE9D8
:100680000C704D4600268346207800070AD4AB45FF
:1006900000DA5D4601A8012D04DD411911F8011CA5
:1006A000302907D04F4502DA17F1040F04DA012090
:1006B00082460FE06D1EEEE7002F02DCED1B3E448C
:1006C00003E0781CA84200DD7D1CB81B00F1010A84
:1006D0004FF000472078000703D4AA4501DB4FF014
:1006E000FF3A0021B7F1004F0DF143088DF8431098
:1006F00024D002202B23002F01DA7F422D230A2150
:10070000021EA0F1010000DC5FB197FBF1FC97FB3A
:10071000F1F201FB1C7C17460CF1300C08F801CDFE
:10072000EEE7A8F1010003702188090501D54521F4
:1007300000E06521A0F1010800F8011C09980FA94B
:10074000A1EB0807FF1D00B10120411901EBEA7080
:10075000A1693844081A401EA0612078C00602D45E
:100760002046AFF30080099828B1D4E901219047D1
:10077000206A401C20622078C00622D52046AFF3B4
:1007800000801EE0002E04DBB34502DD01A8805D81
:1007900000E03020D4E901219047206A401C20620B
:1007A000761CAAF101005FEA000A0AD100F09AF86B
:1007B000C0680168405CD4E901219047206A401C70
:1007C0002062281EA5F10105DCDC07E0D4E9012147
:1007D00018F8010B9047206A401C2062381EA7F1D0
:1007E0000107F3DC2046AFF30080032011B043E69D
:1007F00010B5436913B1AFF3008001E0FFF72CFDA2
:10080000012010BD127800F124010A7000224A7004
:100810000122EDE711684FF0FF32E9E7074B70B5B1
:100820000D467B4400F0B9F80446284600F096F9DE
:1008300010B14FF0FF3070BD204670BD5B2100004D
:100840000FB4002300B589B00CA900910B99CB60BF
:10085000214B7B440693214B7B44079304236FF089
:100860000042CDE901321E4A7A446B4608920246A4
:10087000002002F007FC09B05DF814FB70B50646D5
:100880004FF0FF3015460C46324686B00091CDE958
:10089000010169460020049004A8FFF7D1FF024639
:1008A0000498211825B108B1084600E020462860C8
:1008B000049800280DD0002A02DD0098884208D054
:1008C0003246081B69460094CDE9010404A8FFF7ED
:1008D000B7FF06B070BD0000EB010000030200008E
:1008E0001301000000487047E801002000487047ED
:1008F000C801002030B5B0F10A024FEA900E71F144
:1009000000034EEA817EB0EB0E0061EB91014FEAED
:10091000101E4EEA017E10EB0E0041EB11114FEA62
:10092000102E4EEA016E10EB0E0041EB11214FEA42
:10093000104E4EEA014E10EB0E0041EB11414018F3
:1009400041F100014FEAD00040EA41704FEAD10185
:1009500010EB80054FEA810444EA907444EB0104F3
:100960006D1944EB0404521BA3414FF0000348BF30
:100970000A3200D530BD401C41F1000130BD10B538
:10098000044600F019F90068005D00F0010010BD98
:1009900001694A1C02610878704700B58FB0CDE943
:1009A00001310021059105497944CDE90310114633
:1009B0006846FFF77AFC0FB000BD0000E5FFFFFFBF
:1009C0002DE9F0411F46044603260168072A01F479
:1009D000006004DB08B116A505E016A503E008B128
:1009E00015A500E015A521F010002060A069C01E2B
:1009F000A0610FB1401EA0612046AFF300804FB14F
:100A0000D4E9012138469047206A401C2062C01C6E
:100A1000206206E0206AFAE7D4E9012115F8010B0B
:100A20009047761EF8D22046AFF30080BDE8F081F3
:100A30004E414E006E616E00494E4600696E660082
:100A4000426842B1016811F8013B23B1521EC0E96E
:100A50000012184670470121C160881E7047426825
:100A60005AB1C368016843B983688B4205D0491EF7
:100A7000521CC0E90012002070474FF0FF30704751
:100A80002DE9F047814616468AB0334878440DC8B0
:100A90008DE80D0030487844801C03AC0DC884E814
:100AA0000D0041F69B300844372190FBF1F290FB9A
:100AB000F1F5A5F1800501FB12041B3C02D564424F
:100AC000012000E00020DFF890A080460027FA44D3
:100AD000AAF1BE0A0DE0E00709D03246684607EBEE
:100AE00047010AEB810101F01AF88DE80700641054
:100AF0007F1C002CEFD1184F7F44AC3F18E0E80773
:100B000014D007EB04100DF1180A90E80E008AE8E3
:100B10000E00C068F04201D198190890324606A92B
:100B200003A800F0FCFF03AB83E807006D10641C12
:100B3000002DE4D132466946B8F1000F03A802D077
:100B400000F0C5FF01E000F0EAFFC9E90001C9F8C3
:100B500008200AB0BDE8F087AC260000007B00F05A
:100B60008000704700487047C80100207546FFF7B5
:100B7000F9FFAE4605006946534620F0070085465A
:100B800018B020B5FFF748FBBDE820404FF0000645
:100B90004FF000074FF000084FF0000B21F0070165
:100BA000AC46ACE8C009ACE8C009ACE8C009ACE8A8
:100BB000C0098D467047000010B5FFF793FE001D79
:100BC00010BD00BF552000002DE9FF4F064689B03B
:100BD0000878FF2806D0491C2D2805D000244FF0A6
:100BE000000908E000200CE00124F8E709EB890384
:100BF000491C00EB43090878FF28F7D114B1C9F16B
:100C000000008146107800252C46AA4629462D284A
:100C100001D02B2804D1521C2D2813D0002082464D
:100C20008B461078FF280FD04FF0000C0A21521C81
:100C3000A5FB017804FB018105FB0C11C5194BEBE9
:100C40000104EEE70120EAE7002108464FF000002A
:100C5000BAF1000F02D000EB80004008C0F38158C9
:100C6000B8F1010F01DD4FF0FF380C9809EB0007D8
:100C700055EA040009D04FF0020917F5FA7F0BDAA4
:100C80004FEACA70C6E900B012E04FEACA70C6E97E
:100C900000B00DB0BDE8F08FB7F5FA7F0DDDF0487C
:100CA0007844D0E90010C6E9001040EACA707060CC
:100CB000FFF71CFEC0F80090EBE7391E02DAC8F11E
:100CC000000200E0424600DA794206A8FFF7D8FEAB
:100CD00006AB93E8070003AB83E8070044F23E004D
:100CE0005BEA04010090584604D144F21E012C46F0
:100CF0005D460091210C0904014306D100992404AA
:100D000044EA15442D041039009104F07F41014359
:100D100006D10099240244EA15642D020839009195
:100D200004F07041014306D10099240144EA15748E
:100D30002D01091F009104F04041014306D10099A3
:100D4000A40044EA9574AD00891E009104F00041AE
:100D5000084304D100986D196441401E009042463A
:100D60006846002FCDE9014503A902DD00F0EBFE46
:100D700001E000F0C0FEBAF1000F04460D4601D0BC
:100D800084F0004440F2FF7724F00040284303D071
:100D9000C4F30A50B84212D1FFF7A8FDC0F8009082
:100DA000C4F30A50B8420AD1AE487844D0E90010E2
:100DB000C6E9001004F000410843706069E7C6E925
:100DC000005466E72DE9FF4F1F464FF0000A4FF031
:100DD000FF38454691B0D7E90146CDF83CA0FFF772
:100DE00081FDC0680168405C1090B96912986D1C63
:100DF0008847396A814688470028F6D1B9F1FF3F14
:100E00000AD0002E24F4D06411DDB9F12B0F08D0E4
:100E1000B9F12D0F0BD102E0404615B03AE744F48A
:100E20008064B96912986D1C8847761E81466005FA
:100E300004A901D52D2000E02B20002E01F1010B8B
:100E40000DF130088DF810003FDDB9F1690F08D0C1
:100E5000B9F1490F05D0B9F16E0F02D0B9F14E0FBB
:100E60001CD13B4601A8009580E85002DDE9121232
:100E70006FF0020002F00AF9C11CCED10EE0B96990
:100E800012986D1C884781461398761E44F40074AE
:100E900005600F98401C002E0F9016DDB9F1300F41
:100EA000EDD0B9F1780F02D0B9F1580F0DD10F98EC
:100EB00001280AD13B46CDE90054DDE91212001F9A
:100EC000029602F0E1F8C11CA7D1109989453ED1E4
:100ED00044F0800406E01399681CAAF1010A44F466
:100EE00000740860B9696D1C1298761E8847302816
:100EF0008146F0D02BE01099894505D1200603D416
:100F0000761E44F0800418E0484601F0F8FC08B36F
:100F1000761E0DF123018B4544F4007408D2A9F12B
:100F200030000BF8010B200607D5AAF1010003E001
:100F3000200602D40AF101008246A00502D51399C9
:100F4000681C0860B96912986D1C88478146002E9C
:100F5000D1DC53E0002E51DDB9F1650F02D0B9F1BB
:100F6000450F4BD1A00549D5B9696D1C1298761E65
:100F700024F440748847002E81460CDD2B2804D0D1
:100F8000B9F12D0F07D144F48074B96912986D1C22
:100F90008847761E8146E00501D52D2100E02B21F2
:100FA00008F8011BCDF8008021E0761E0DF1390113
:100FB000884544F400740CD2A9F1300010F0FF0011
:100FC00088F8000002D10099884509D908F1010884
:100FD00006E0E00501D5244801E042F20F708246A8
:100FE000B96912986D1C8847814613980560002ED8
:100FF00004DD484601F083FC0028D6D1F969129837
:101000008847FF2053468BF8000088F80000002036
:101010000A900B9004AA0CA90AA8FFF7D5FDA00519
:1010200002D46FF00100F8E614F0240F0AD0E007B4
:1010300014D13868DDE90A12031D3B600068C0E97D
:1010400000120BE00AA9684601F002FCE00705D196
:101050003868009A011D3960006802602846DCE6A5
:10106000D0240000C6230000F1D8FFFF10B50446CD
:10107000AFF300802046BDE81040FFF7B9B800008C
:101080004FF0013C50F8042B51F8043B9A4221D117
:10109000A2EB0C03934313EACC1317D150F8042BA3
:1010A00051F8043B9A4215D1A2EB0C03934313EA87
:1010B000CC130BD150F8042B51F8043B9A4209D1C0
:1010C000A2EB0C03934313EACC13DBD04FF00000E8
:1010D000704700BFD01A01BAB1FA81F101F01801CE
:1010E00022FA01F0CB40C1F12001DBB2C0B2C01A3C
:1010F0002CFA01F3D11A914311EAC311E6D17047DA
:101100002DE9FF4F1F464FF03C0987B04FF00042DA
:10111000DDE9141001F10108DDF858A002EA4050A1
:101120000390002005908346054604460490B96963
:10113000461E08988847AAF1010A0290BAF1000FEA
:101140003BDD02982E2815D0102100F016FA002859
:101150002EDB4FF0010B0599014317D0B9F1000FB9
:101160000BDB4A46C11700F0F5F905430C43A9F122
:10117000040905E0012004900BE008B145F00105E9
:1011800001200590049820B9361D02E0049800B1B2
:10119000361FB969089808F101088847BBF1000FAC
:1011A000AAF1010A0290C9D00999C1F80080C5E7E7
:1011B0000298702808D0502806D0F9690898884706
:1011C000BBF1000F14D04FE0002002900120BBF1D2
:1011D000000F049009D0B969089808F10108884700
:1011E000AAF10109B9F1000F07DCF96908988847ED
:1011F0006FF001000BB0BDE8F08F2B2804D02D2834
:101200000CD14FF0FF300490B969089808F101083B
:101210008847A9F10109B9F1000FE6DD411CE4D0CE
:101220000A2100F0AAF90028DFDB029908F1010881
:1012300001EB810100EB41000290B96908988847F1
:101240000A2100F09AF9099AA9F10109B9F1000FF0
:10125000C2F8008001DD0028E7DAF96908988847BC
:101260000499029800FB016655EA040004D004F0DA
:101270004041090002D006E0039898E0A40044EA47
:101280009574AD00B61E04F00041080002D16D193E
:101290006441761E159810F0240F03D04FF00B090F
:1012A0005C4803E04FF028096FF07D008246564508
:1012B00007DAAAEB06018944B9F1410F01DD4FF0CD
:1012C000410901200021A9F1010200F043F9024681
:1012D00028400B462140084301D0012100E00021B5
:1012E000501E029143F1FF3128402140084301D0B4
:1012F000012000E000200299834651EA0B014FD003
:10130000002108464FF00000039900F4400039B175
:1013100000EB80004FF4400100EBD07001EA600068
:101320008015012802DD4FF0FF3000E013D0401C93
:1013300036D0029860B3BBF1000F0CD14A460120B1
:10134000002100F007F928402140084301D0012086
:1013500000E00020E0B101204A46002100F0FAF848
:10136000034640190A4661412D1A8C4111D3B9F147
:10137000400F09DD159810F0240F02D0AAF13406B1
:1013800003E0AAF1170600E0761C00254FF00044A8
:1013900006E05B1E42F1FF3220EA030521EA020467
:1013A000CAF10100B04206DA1B49039808430190D4
:1013B000002000900EE0039AC4F3D321E80A0A4308
:1013C000164940EA44500A433146CDE900026846D6
:1013D00001F08AFA159810F0240F0BD01598C00769
:1013E00015D13868DDE90012031D3B600068C0E9D3
:1013F00000120CE002A8694601F02AFA1598C0070D
:1014000005D13868029A011D3960006802604046C3
:10141000F0E6000002FCFFFF0000F07F0000F03F5C
:101420002DE9FF4F92461D4685B04FF00041DDE9A2
:10143000124BDDE914727F1E01EA4B50414940F026
:10144000FF4940EA0108002122F0200049280491C8
:1014500002D04E2828D04CE03BA0012607C88DE8DA
:101460000700A9690698641C88477F1E014606D4B8
:101470001DF8060018B121F0200181420BD0E96966
:1014800006988847032E34D0082E32D06FF0010022
:1014900009B0BDE8F08F761C032E01D0082EE0D1F4
:1014A000601CCAF80000DCE7A9690698641C88473C
:1014B0007F1E2AD420F02000412826D1A969069851
:1014C000641C88477F1E20D420F020004E281CD1A9
:1014D000A9690698641C88477F1E48F4002849F4CF
:1014E0008009CAF8004001D4282806D0E969069886
:1014F00088475FEACB7012D022E0A9690698641C85
:1015000088477F1E01D4002803DAE96906988847D6
:10151000BCE72928F1D1641CCAF80040E9E71BF0B8
:10152000240F07D028680499031D2B600068C0E9C8
:10153000001805E02868021D2A600068C0F80090C5
:101540002046A5E70000F07F494E46494E495459D0
:1015500000000000B2F120030AD5C2F1200301FA15
:1015600002F120FA03F300FA02F041EA03017047A6
:1015700000FA03F14FF0000070473A2800D23038EB
:1015800020F02002412A01D3A2F13700884201D382
:101590004FF0FF3070475FEA400C08BF91F0000F3A
:1015A0004FEA8C234FEAC12243EA51514FEA1C50C3
:1015B00018BF00F5F0404FEA300018BF41F000417D
:1015C0005FEA6C5C00F02980BCF1FF3F08BF40F08F
:1015D00080407047130C06BF12044FF0100C4FF000
:1015E000000C130E04BF12020CF1080C130F04BF01
:1015F00012010CF1040C930F04BF92000CF1020CC9
:10160000D30F04BF52000CF1010C11464FF0000241
:10161000A0F11F00A0EB0C00704711F0004F08BFB5
:10162000704731F000413FF4D5AF0B0C06BF090401
:101630004FF0100C4FF0000C0B0E04BF09020CF120
:10164000080C0B0F04BF09010CF1040C8B0F04BF35
:1016500089000CF1020CCB0F04BF49000CF1010C06
:10166000CCF12003A0EB0C0022FA03F302FA0CF2F7
:1016700041EA030100F10100704720F07F4C80EA4D
:10168000030023F07F47ACEB070303F57C5300F026
:10169000004003F1FF032DE980494FEA154B09B4DF
:1016A0004FEA144325EA0B4E24EA03480FF20426BE
:1016B00006EB132749083E785FEA320203FB066710
:1016C000C7F5000707FB06F64FEA54374FEAD64640
:1016D00006F1020607FB066CCCF1005C4FEA1C47E2
:1016E0002CEA074C07FB06F40CFB06F504EB154649
:1016F0004FEA961634BF00204FF000404FEAD13732
:1017000006FB07FC4FEA1C4C0CFB0BF7D21B03FB40
:101710000CF761EB07010CFB0EF7B0EB074072EB27
:1017200017420CFB08F734BFA2EB0742B2EB0742AB
:1017300061EB17414FEA0C444FEA910706FB07FCA7
:101740004FEA1C4C0CFB0BF7B0EBC74072EB573267
:1017500003FB0CF734BFA2EBC742B2EBC74261EB0D
:1017600057310CFB0EF7B0EBC70072EB57720CFB56
:1017700008F734BFA2EBC702B2EBC70261EB5771A7
:10178000039F4FEA816141EA921104EBCC044FEAD6
:10179000D1374FEA826206FB07FC42EA90124FEA19
:1017A00080604FEA1C4C0CFB0BF7D21B03FB0CF7C1
:1017B00061EB07010CFB0EF7B0EB074072EB174231
:1017C0000CFB08F734BFA2EB0742B2EB074261EB18
:1017D00017414FEA8C554FEA910704EB9C2406FB16
:1017E00007FC4FEA1C4C0CFB0BF7B0EBC74072EB4D
:1017F000573203FB0CF734BFA2EBC742B2EBC74230
:1018000061EB57310CFB0EF7B0EBC70072EB577270
:101810000CFB08F734BFA2EBC702B2EBC70261EBC7
:10182000577115EB4C254FEA816141EA92114FEA5D
:1018300082624FEAD13742EA901206FB07FC44F17C
:1018400000044FEA80604FEA1C4C0CFB0BF7D21BE4
:1018500003FB0CF761EB07010CFB0EF7B0EB074045
:1018600072EB17420CFB08F734BFA2EB0742B2EB56
:10187000074261EB174115EB1C154FEA813141EA34
:1018800092414FEA823242EA90424FEA80304FEA78
:101890000C7644F1000448EA03434EEA0B484FF04B
:1018A000000EB2EB080C71EB030724BF6246394609
:1018B0004EEB0E0E4FF0000B0018524149414BEB1E
:1018C0000B0BB2EB080C71EB03077BF1000B24BF91
:1018D000624639464EEB0E0E4FF0000B0018524197
:1018E00049414BEB0B0BB2EB080C71EB03077BF19F
:1018F000000B24BF624639464EEB0E0E51EA02073A
:1019000018BF46F0010616EB0E7655F1000254F1B1
:10191000000103D5BDE88901BDE80088BDE8890163
:10192000BDE80048B619524141EB0101A3F10103A2
:10193000704780807F7E7D7C7B7A7978777676753C
:101940007473727171706F6E6E6D6C6C6B6A6A69B4
:101950006868676666656464636362616160605F4E
:101960005F5E5E5D5D5C5C5B5B5A5A5959585857C7
:10197000575656555555545453535252525151502F
:1019800050504F4F4F4E4E4D4D4D4C4C4C4B4B4B82
:101990004A4A4A49494948484847474747464646C8
:1019A0004545454444444443434343424242424103
:1019B0004141000046EA0646A3F570534FEA164639
:1019C00046EA42564FEAD22242EA415210B54FEA65
:1019D000D121A3F1010300F017F820F0004000F13D
:1019E000010C00F0004701EB00501146BCF5006F00
:1019F00040EA070000D210BD02484FF0000140EA63
:101A0000070010BD0000F07F002B26D4770021D006
:101A10001CB54FEA370703B44FF010004FF0100128
:101A20004FF000000FBCBDE810400BF1010BBBF103
:101A3000010F08BF5FEA170722BF12F1010211F17F
:101A400001014FF0004143F1000300F0004043EA80
:101A500000007047F9D35708DAE746EA064613F163
:101A6000400F4FEA16461FDD13F1200FDFBF16436C
:101A70000A46002120335B42C8D0C3F1200746EA62
:101A8000064602FA07F74FEA164646EA0706C3F18A
:101A9000200722FA03F201FA07F721FA03F14FF0C7
:101AA000000342EA0702B1E746EA020646EA0646B2
:101AB0004FEA164646EA0106BCBF46EA0646360C21
:101AC0004FF000034FF000024FF000019EE72DE9B8
:101AD000C048934630B491E8380007C831EA400C5A
:101AE00048BF34EA430C03D5FFF7C7FDFFF78CFF6F
:101AF000F0BCBDE800882DE9C048934630B491E8B9
:101B0000380007C831EA400C48BF34EA430C03D51B
:101B1000FFF7B3FDFFF74EFFF0BCBDE800882DE9ED
:101B2000C048934630B491E8380007C810F0804FA1
:101B300008BF13F0804F03D100F019F8FFF764FFDE
:101B4000F0BCBDE800882DE9C048934630B491E868
:101B5000380007C810F0804F08BF13F0804F03D142
:101B600000F005F8FFF726FFF0BCBDE8008820F084
:101B70007F4780EA030023F07F4C07EB0C03A3F5BB
:101B80007C5300F00040A3F1FE0392F0000F00F040
:101B9000B38095F0000F00F077802DE901494FEAFE
:101BA00011404FEA144621EA004800FB06FC24EAF3
:101BB000064708FB06F607FB08F800FB07F718EBDB
:101BC00006484CEB164C4FEA124B18EB07484FEA0D
:101BD00015464CEB174022EA0B4E0BFB06FC25EAA0
:101BE00006470EFB06F607FB0EFE0BFB07F71EEB88
:101BF000064E4CEB164C4FF000061EEB074E4CEB1E
:101C0000174B18EB0B0840F1000018EB0E0B58EBCC
:101C1000000840F100008F1A4FF000013CBFC9439B
:101C2000661B14BFB5EB040C00213CBFC943F61B77
:101C30004FEA17444EEA8E0E27EA04454FEA1C4746
:101C400004FB07622CEA074C05FB07F70CFB05F6C3
:101C500004FB0CFC16EB074642EB174216EB0C4656
:101C600042EB1C421BEB060658EB0202414146EADE
:101C70009E0601D5BDE80189B619524141EB01012B
:101C8000A3F10103BDE801894FEA14454FEA11476A
:101C900024EA054621EA074C05FB07F406FB07F793
:101CA0000CFB06F105FB0CFC11EB074144EB174460
:101CB0004FEA124711EB0C4144EB1C4422EA074C5B
:101CC00005FB07F206FB07F70CFB06F605FB0CFC11
:101CD00016EB074642EB174216EB0C4642EB1C454F
:101CE0006A1854F1000148BF7047B619524141EBE0
:101CF0000101A3F10103704795F0000F37D04FEABF
:101D000011424FEA144721EA024624EA074C02FB3B
:101D100007F106FB07F70CFB06F402FB0CFC14EBC7
:101D2000074441EB17414FEA154714EB0C4441EBD4
:101D30001C4125EA074C02FB07F506FB07F70CFBE5
:101D400006F602FB0CFC16EB074645EB174516EBB7
:101D50000C4645EB1C42121951F1000148BF704777
:101D6000B619524141EB0101A3F1010370474FEA5B
:101D700014454FEA114724EA054621EA074C05FBC2
:101D800007F106FB07F70CFB06F24FF0000605FB18
:101D90000CFC12EB074241EB174112EB0C4251EBEA
:101DA0001C4148BF7047921841EB0101A3F10103A8
:101DB000704700BFFEE770472DE9F041024600255D
:101DC0000026002000230024002791F803C00CF017
:101DD0000F0591F803C00CF0100CBCF1000F03D0FC
:101DE00091F802C04CEA050591F800C0BCF1000F63
:101DF00031D0146800202BE04FF0010C0CFA00F3F6
:101E0000B1F800C00CEA03069E4220D183004FF0D7
:101E10000F0C0CFA03F7BC4305FA03FC4CEA04046C
:101E200091F803C0BCF1280F06D14FF0010C0CFA59
:101E300000FCC2F814C00AE091F803C0BCF1480FDE
:101E400005D14FF0010C0CFA00FCC2F810C0401C88
:101E50000828D1D31460B1F800C0BCF1FF0F34DD05
:101E6000546800202EE000F1080C4FF0010808FA39
:101E70000CF3B1F800C00CEA03069E4221D18300A6
:101E80004FF00F0C0CFA03F7BC4305FA03FC4CEAC5
:101E9000040491F803C0BCF1280F05D100F1080C2F
:101EA00008FA0CF8C2F8148091F803C0BCF1480F8E
:101EB00007D100F1080C4FF0010808FA0CF8C2F83D
:101EC0001080401C0828CED35460BDE8F08100008B
:101ED00010B54FF4E13000F0E5FD00F077F921A0F6
:101EE000FEF7AEF900F072F921A0FEF7A9F900F0B3
:101EF0006DF922A0FEF7A4F900F068F923A0FEF71F
:101F00009FF900F063F924A0FEF79AF900F05EF95A
:101F100025A0FEF795F900F059F926A0FEF790F9F3
:101F200000F054F927A0FEF78BF900F04FF929A033
:101F3000FEF786F900F04AF92AA0FEF781F900F0D1
:101F400045F92CA0FEF77CF900F040F92DA0FEF732
:101F500077F900F03BF92EA0FEF772F900F036F9A0
:101F600010BD00006E756D312E76616C3D3600003F
:101F70006E312E7478743D22503A22006E315F6EBD
:101F80002E7478743D223022000000006E322E74D0
:101F900078743D22493A22006E325F6E2E74787456
:101FA0003D223022000000006E332E7478743D22F2
:101FB000443A22006E335F6E2E7478743D223022D4
:101FC000000000006E342E7478743D22616E673A12
:101FD000220000006E345F6E2E7478743D22302231
:101FE000000000006E352E7478743D226469733AE7
:101FF000220000006E355F6E2E7478743D22302210
:10200000000000006E362E7478743D22563A22008D
:102010006E365F6E2E7478743D2230220000000010
:1020200000BFFEE700BFFEE77047000070B500216B
:1020300000230F22C47804B3154C246804F4E06430
:10204000C4F5E064210AC1F10403CA40447804FAEB
:1020500003F184781440214309010E4C0678A15500
:10206000047804F01F050124AC4005786D11AD0023
:1020700005F1E025C5F8004109E0047804F01F05EA
:102080000124AC40044D0678761145F8264070BD19
:102090000CED00E000E400E080E100E002490143D3
:1020A000024A1160704700000000FA050CED00E0E4
:1020B0007047000029B1064AD2690243044BDA6135
:1020C00004E0034AD2698243014BDA6170470000A1
:1020D0000010024029B1064A92690243044B9A61FA
:1020E00004E0034A92698243014B9A617047000001
:1020F0000010024030B500210022002400232D4DA5
:102100006D6805F00C0121B1042905D0082923D1FF
:1021100005E0294D056022E0274D05601FE0254DB3
:102120006D6805F47012234D6D6805F48034022546
:1021300005EB92421CB9214D554305600BE01D4D46
:102140006D6805F400351DB11C4D5543056002E076
:10215000194D5543056002E0174D056000BF00BFF3
:10216000144D6D6805F0F0010909154D6B5C0568AB
:10217000DD4045600F4D6D6805F4E061090A104DC2
:102180006B5C4568DD4085600A4D6D6805F4605103
:10219000C90A0B4D6B5C4568DD40C560054D6D6837
:1021A00005F44041890B074D6B5CC568B5FBF3F541
:1021B000056130BD0010024000127A0000093D00A8
:1021C000AD000020BD0000207047000010B5FF21C9
:1021D00005A0FEF735F8FF2103A0FEF731F8FF2137
:1021E00001A0FEF72DF810BD2563000010B50446D0
:1021F000214603A0FEF724F8FFF7E8FF10BD00001A
:1022000077642E7478743D222573220010B500F097
:1022100001F810BD0CB50020019000903348006813
:1022200040F480303149086000BF3048006800F455
:10223000003000900198401C0190009818B9019856
:10224000B0F5A06FF1D12948006800F4003010B15A
:102250000120009001E0002000900098012843D167
:102260002348006840F010002149086008460068D3
:1022700020F0030008600846006840F00200086093
:102280001A4840681949486008464068486008464E
:10229000406840F4806048600846406820F47C1044
:1022A00048600846406840F4E81048600846006806
:1022B00040F08070086000BF0C48006800F00070BB
:1022C0000028F9D00948406820F003000749486019
:1022D0000846406840F00200486000BF034840687C
:1022E00000F00C000828F9D10CBD000000100240DD
:1022F00000200240042808D14FF0E021096941F094
:1023000004014FF0E022116107E04FF0E02109697C
:1023100021F004014FF0E022116170477047000086
:1023200010B51348006840F00100114908600846E4
:102330004068104908400E494860084600680E4948
:1023400008400B4908600846006820F480200860B7
:102350000846406820F4FE0048604FF41F00886083
:10236000FFF754FF4FF000600449086010BD000003
:10237000001002400000FFF8FFFFF6FE08ED00E04D
:1023800010B540F225511D4800F078F910B31B48F4
:1023900000F030FAC4B21A48008800F40040C8B90E
:1023A0001748008800F4804060B10A2C03D0002058
:1023B0001349088020E01248008840F4004010498A
:1023C000088019E00D2C06D10D48008840F48040AB
:1023D0000B49088010E00A480088C0F30D00094945
:1023E0000C5407480088401C0549088008460088AE
:1023F000C72801DD0020088010BD00000038014022
:10240000F0000020FF0000202DE9F04140F22551AE
:10241000854800F033F9002878D0834800F0EAF9C5
:10242000C5B2A5F14100062872D2DFE800F003151D
:1024300027394B5D002003E020217C4A1154401CC9
:102440000B28F9DB01207A490860002079490860EF
:102450000120794908605CE0002003E02021734AF4
:102460001154401C0B28F9DB012071490860002041
:10247000704908600220704908604AE0002003E0CB
:1024800020216A4A1154401C0B28F9DB01206849BD
:10249000086000206749086003206749086038E049
:1024A000002003E02021614A1154401C0B28F9DB75
:1024B00001205F49086000205E49086004205E49F1
:1024C000086026E0002003E02021584A1154401CF7
:1024D0000B28F9DB012056490860002055490860A7
:1024E00005205549086014E0002003E020214F4AF0
:1024F0001154401C0B28F9DB01204D4908600020D5
:102500004C49086006204C49086002E089E0FFE77A
:1025100000BF00BF4648006878B15A2D0DD045482D
:1025200000680B2809DA4148424909684554414886
:102530000068401C3F49086073E05A2D6ED13B484B
:10254000401C00F0E5F9064600F07CFB04463A48E2
:10255000006807285FD2DFE800F05E0413223140F4
:102560004F00204600F0B6FC064632460B4633A02C
:10257000FDF766FEFFF72AFE3448006804604BE072
:10258000204600F0A7FC064632460B462BA0FDF77E
:1025900057FEFFF71BFE2E48006804603CE0204613
:1025A00000F098FC064632460B4624A0FDF748FE94
:1025B000FFF70CFE2748006804602DE0204600F07D
:1025C00089FC064632460B461CA0FDF739FEFFF794
:1025D000FDFD2148006804601EE0204600F07AFC02
:1025E000064632460B4615A0FDF72AFEFFF7EEFD24
:1025F0001A48006804600FE0204600F06BFC0646B5
:1026000032460B460DA0FDF71BFEFFF7DFFD144819
:102610000068046000E000BF00BF02E00020044941
:102620000860BDE8F081000000480040F400002090
:10263000C4000020C8000020CC00002077642E7465
:1026400078743D22252E346622000000D000002040
:10265000D4000020D8000020DC000020E000002092
:10266000E400002021B1828942F40052828104E01A
:1026700082894DF6FF731A408281704770B5024619
:10268000002400230025002040F66A16B14200D144
:1026900000BFC1F3421501F01F03012606FA03F340
:1026A000012D02D19689334006E0022D02D1168A0F
:1026B000334001E0968A33400C12012606FA04F4F6
:1026C0001688344013B10CB1012000E0002070BD29
:1026D000F0B50346002400260025002040F66A17C6
:1026E000B94200D100BF1846C1F3421401F01F06E1
:1026F000012707FA06F5012C01D10C3004E0022C69
:1027000001D1103000E014301AB107682F43076080
:1027100002E00768AF430760F0BD00002DE9F04715
:1027200086B005460E460024A24600BFA1460027FB
:10273000B08900B100BF2F462C8A4CF6FF700440D0
:10274000F08804432C82AC894EF6F3100440B08824
:1027500031890843718908430443AC81AC8A4FF640
:10276000FF400440B0890443AC8201A8FFF7C2FCDB
:102770001F48874202D1DDF810A001E0DDF80CA06F
:10278000A88900F4004040B10AEBCA0000EB0A102F
:1027900031684900B0FBF1F807E00AEBCA0000EB32
:1027A0000A1031688900B0FBF1F86420B8FBF0F042
:1027B00004012009642101FB1089A88900F400406C
:1027C00040B1322000EBC900B0FBF1F000F007008F
:1027D000044308E0322000EB09106421B0FBF1F063
:1027E00000F00F0004432C8106B0BDE8F087000024
:1027F0000038014001468888C0F308007047C1F3E3
:1028000008028280704700BFFEE7490050EAC120FD
:1028100018BF04204A0D18BF40F0010040F2FF72BB
:10282000B2EB515F08BF40F00200012808BF05204D
:10283000704740F2013200204FF0E04100F0F4BB5D
:10284000024A0020110700F0EFBB000001FDFFFF6E
:1028500010B50446D1E9000100F002F8206010BD77
:10286000F8B504460D466A4600F09CF800987E30A4
:10287000009000281FDC002213462046294600F065
:1028800027FA18D0002140F608004FF00000064655
:102890002046294600F0D6F9044640F6080006EA2C
:1028A00000014FF0000034F0004004BF0220FDF7AB
:1028B0008CFD2046F8BD0098FF280DDB0220FDF7B7
:1028C00084FD002213462046294600F0CDFA8CBF35
:1028D00004484FF0FF40F8BD20462946BDE8F840C7
:1028E00000F0B0B9000080FF10B504460A46D4E9F4
:1028F0000003194600F082F8C4E9000110BD303829
:102900000A2801D2012070470020704700BF70479D
:1029100030B583B00446FDF753FD05460020CDE9F0
:102920000000024621466846FDF7A8FF2846FDF74D
:102930004CFDDDE9000103B030BD000010B56FF0C3
:102940000400FFF7D7FC0A4800680A49B0FBF1F021
:10295000094908700846007800EB4001C1EBC0103F
:102960004FF6FF7101EAC0000449088010BD000065
:102970000000002000127A00E8000020EA00002099
:1029800070B504460D46E1B20548FFF738FF00BFB9
:102990000348008800F080000028F9D0204670BD70
:1029A0000048004010B5144600222260114A21F070
:1029B00000439342A8BF10BD53EA000208BF10BDF8
:1029C000B3F5801FA8BF226807DA362200F02CFB7F
:1029D0006FF0350221F000432260DFF81CC06FF376
:1029E0001E510CEB23531A4441F0FF5141F00051AA
:1029F000226010BD0000F07F02FCFFFF2DE9F041D6
:102A000006460C4640F2FF75174635EA14502BD0A7
:102A100000221346304600F05BF925D03A46304696
:102A2000214600F001FB06460C4635EA145010D052
:102A300000221346304600F04BF915D10220FDF775
:102A4000C4FCFFF7FDFE0A46214662F31E01BDE805
:102A5000F0810220FDF7B9FCFFF7EBFE0A462146A4
:102A600062F31E01BDE8F08130462146BDE8F081E9
:102A7000FFF764FF4FF4A060FFF710FBFFF728FAA1
:102A80004FF4E13000F062F802A0FFF7AFFB00BFA7
:102A9000FEE7000073797374656D206973206F6BB6
:102AA0002100000010B586B0044601210820FFF780
:102AB00011FB01218804FFF7FDFA4FF48060ADF8A7
:102AC000140003208DF8160018208DF8170005A9B2
:102AD0001C48FFF771F94FF40060ADF814000420B2
:102AE0008DF8170005A91748FFF766F90194002033
:102AF000ADF80800ADF80A00ADF80C00ADF8100014
:102B00000C20ADF80E0027208DF8000003208DF872
:102B100001008DF8020001208DF803006846FFF7E0
:102B200085FA01A90848FFF7F9FD012240F2255175
:102B30000548FFF7CDFD01210348FFF793FD06B0DF
:102B400010BD0000000C01400048004010B586B0E8
:102B50000446012144F20400FFF7BCFA4FF4007070
:102B6000ADF8140003208DF8160018208DF817001A
:102B700005A91C48FFF720F94FF48060ADF8140058
:102B800004208DF8170005A91648FFF715F9252030
:102B90008DF8000003208DF801008DF8020001205F
:102BA0008DF803006846FFF741FA01940020ADF864
:102BB0000800ADF80A00ADF80C00ADF810000C20CC
:102BC000ADF80E0001A90848FFF7A8FD012240F268
:102BD00025510548FFF77CFD01210348FFF742FD21
:102BE00006B010BD000801400038014010B50029B2
:102BF0000AD00878002807D005487844FEF740FA44
:102C0000002801D0002010BD0248784410BD00000B
:102C1000820500007A05000010B500290AD0087866
:102C2000002807D005487844FEF72AFA002801D08A
:102C3000002010BD0248784410BD0000720500005D
:102C40006A05000021F00042A2F16052B2F5801F37
:102C500001F0004328BFD2F17F6C0BD95FEA001C62
:102C600043EAC20242EB507018BF704728BF20F001
:102C700001007047B2F5801FBCBF184670474FEA8D
:102C8000410C1CF5001F02D2084600F094B970B543
:102C900000F096F800000089FFF7F6BF4FF0004003
:102CA000A0F580007047000002494FF0000000F0DE
:102CB00089B900BF0000F87F491058BFC1F14041F9
:102CC0005B1058BFC3F140438B42EFF30080704765
:102CD00051EA030C17D41CF5801F58BFBCF5801FA8
:102CE00000F10680994218BF704708BF90427047B4
:102CF00007D711F5801F58BF13F5801F19D49942CB
:102D00007047894270471CF5801F08D5BCF5801FAD
:102D1000F7D58B4218BF704708BF824270474FF407
:102D2000001C1CEB410F38BF1CEB430F01D28B4240
:102D3000704770B500F044F8922449004FF00051FC
:102D40004FF08053FFF7B8BF51EA030C17D41CF5BE
:102D5000801F58BFBCF5801F00F10680994218BF44
:102D6000704708BF9042704707D711F5801F58BFC2
:102D700013F5801F19D499427047894270471CF59A
:102D8000801F08D5BCF5801FF7D58B4218BF704750
:102D900008BF824270474FF4001C1CEB410F38BF44
:102DA0001CEB430F01D28B42704770B500F008F85E
:102DB000922449004FF000514FF08053FFF77CBF41
:102DC0000EF1020E2EF0030E5EF8046B364205D4AF
:102DD000012A43EB030515F5001F12D8012841EB2A
:102DE000010C1CF5001F0CD80ED14FEAD17C15F553
:102DF000001F0CEB4C0C0CF1020C08BF4CEBD37C0D
:102E000004E04FF0080C01E04FEAD37C0CEB4C05DA
:102E100026FA05F606F00706B6F1040C06D20EEB0C
:102E2000860CBDE870404CF0010C6047DFE80CF008
:102E3000090B02024FF000414FF00000A1F5002104
:102E400070BD19461046012851EB010418BFD4F596
:102E5000001484BF002001F0004170BD0808A0F5F7
:102E600000114FEA3101704753EA010C17D41CF5E9
:102E7000801F58BFBCF5801F00F106808B4218BF31
:102E8000704708BF8242704707D713F5801F58BFAD
:102E900011F5801F19D48B4270479B4270471CF577
:102EA000801F08D5BCF5801FF7D5994218BF704721
:102EB00008BF904270474FF4001C1CEB430F38BF13
:102EC0001CEB410F01D2994270470FB40CBC03BCFC
:102ED000FFF76BBF43004FEAD30C4FEA3C0C434073
:102EE0001FBF40070CF1605113F0FE4F70471CF0FC
:102EF000006F03D100200CF0004170470CF000433C
:102F000043EA507010B540EACC0000F00EF800BF64
:102F1000000000924FEA0001FFF7A0BF4FF0004110
:102F20004FF00000A1F5002170470EF1020E2EF0C7
:102F3000030E5EF8044B244204D44FEA4102B2F17E
:102F40007F4F11D84FEA4003B3F17F4F0CD80ED119
:102F50004FEAD07CB2F17F4F0CEB4C0C0CF1020C21
:102F600008BF4CEBD17C04E04FF0080C01E04FEAC5
:102F7000D17C0CEB4C0324FA03F404F00704B4F105
:102F8000040C06D20EEB840CBDE810404CF0010C92
:102F90006047DFE80CF0070802024FF00040A0F5A0
:102FA000800010BD0846420018BFD2F1807288BF71
:102FB00000F0004010BDFF2141EAD050C00570472D
:102FC000FDF7E0BA0CF00F03092B08BF082000F052
:102FD0005F800A2B0BD0082B18BF704708BF1CF06E
:102FE000400F0AD04FF000004FF0000170471CF076
:102FF000400F18BF4FF0004070471CF0100F08D072
:1030000020F0704300F07F4242EAD3014FEA437060
:10301000704700F0604021F07F4242EA000201F078
:103020007F4040EA727070474FF0FF0C4CF4E06C48
:103030001CEA11531CBF9CEA030C9445C2BFDA4240
:1030400001EB02517047002B0DD0BCF1000F0FD0E7
:10305000002A01F00041A4BF41F0E04141F07F614E
:103060004FF00000704701F000414FF00000704742
:1030700050EA01334FF09B0C18BF4CF0806C7FF48A
:1030800013AE7047FDF79EBEFEF73AB8FEF7C8B91B
:103090001CF4801F11D01CF4E02F03D06FEACC3158
:1030A000490070474FF04050EFF3008222F0704229
:1030B00042EA000282F3008870474FF00000704738
:1030C00002400000000000A00000000005400000D9
:1030D000000000C8000000000C4000000000409C00
:1030E00000000000194000000020BCBE00000000ED
:1030F00034400000BFC91B8E00000004B540000032
:10310000504BCFD06607E2CF010000006C410000B9
:103110003E8251AADFEEA73401000000D942000030
:10312000DCB5A0E23A301F97FFFFFFFFB445000077
:10313000FD25A0C8E9A3C14FFFFFFFFFFF3F00002F
:103140000000008000000000FF3F00000000008041
:1031500000000000A832000800000020F400000079
:103160006C0100089C330008F400002034070000C4
:1031700088010008000000000000F07F1C00000033
:1031800043000000F8FFFFFF0C0000000E000000ED
:103190000F0000002E00000010010000430000009E
:1031A000F8FFFFFF00404040404040404040414168
:1031B000414141404040404040404040404040400C
:1031C00040404040400502020202020202020202A6
:1031D00002020202022020202020202020202002A3
:1031E0000202020202029090909090901010101033
:1031F00010101010101010101010101010101010CF
:103200000202020202028888888888880808080862
:10321000080808080808080808080808080808082E
:103220000202020240000000000000000000000056
:10323000000000000000000000000000000000008E
:10324000000000000000000000000000000000007E
:10325000000000000000000000000000000000006E
:10326000000000000000000000000000000000005E
:10327000000000000000000000000000000000004E
:10328000000000000000000000000000000000003E
:10329000000000000000000000000000000000002E
:1032A000000000000000000000A24A04000000002E
:1032B000000000000102030406070809000066433D
:1032C000AE47994000A85E470000000000000000E3
:1032D00000000000000000002C0100002C01000094
:1032E00000000000000000000000000000000000DE
:1032F00000000000000000000000000000000000CE
:1033000000000000000000000000000000000000BD
:1033100000000000000000000000000000000000AD
:10332000000000000000000000000000000000009D
:103330000000000000000000010000005049445F50
:10334000310000000000000000000000000000004C
:10335000000000000000000000010203040102035D
:103360000406070809020406080000000000000027
:1033700000000000000000001400002014000020E5
:10338000180000201800002018000020180000205D
:0C33900000000000000000000000000031
:0400000508000131BD
:00000001FF
